:0300000002105497
:0C105400787FE4F6D8FD758120020EBC08
:0C1028001208031209368F907F647E00CE
:10103400E4FDFCC3ED9FEC9E5015E4FBFA0BBB00F2
:0F104400010ABA03F8BBE8F50DBD00010C80E40A
:01105300227A
:100EBC00750800750908C374089509FDE49508FCCC
:100ECC00E41208FD8F118E108D0F8C0E7F007E00AA
:100EDC007D007C40120DA5C004C005C006C007AC47
:100EEC0008AD09E41208FD8F118E108D0F8C0E7F4A
:100EFC00007E007D007C40120DA5D003D002D001F5
:100F0C00D000121028E509150970021508D3E5095F
:100F1C009403E5089400509E750800750904C3E518
:100F2C00099409E50894005087C374089509FDE4F9
:100F3C009508FCE41208FD8F118E108D0F8C0E7F1E
:100F4C00007E007D007C40120DA5C004C005C006CB
:100F5C00C007AC08AD09E41208FD8F118E108D0F7F
:100F6C008C0E7F007E007D007C40120DA5D003D03E
:100F7C0002D001D0001210280509E50970A005085F
:020F8C00809C47
:100800000209A2E86480F8E933E83360110460F07B
:10081000ED33EC337009E8FCE9FDEAFEEBFF22045E
:1008200060DED3EB9FEA9EE99DE8C2E78CF0C2F759
:1008300095F0400CE8CCF8E9CDF9EACEFAEBCFFB25
:1008400012096D85D0F05804700320D5B3E8047008
:10085000075002B2D50209AC92D5EC0460F7E4CCA3
:10086000C0E0C398F8603B94186008400DD0E0FBEE
:10087000020984E4FBFAC9FC8028E830E406E4C9F4
:10088000FBE4CAFCE830E305E4C9CACBFCE8540742
:100890006010F8C3E913F9EA13FAEB13FBEC13FC4D
:1008A000D8F130F52FC3E49CFCEF9BFFEE9AFEEDF0
:1008B00099FDD0E0FBEF4E4D4C701222DB03020994
:1008C000A9EC2CFCEF33FFEE33FEED33FDED30E70A
:1008D000EB020984EF2BFFEE3AFEED39FDD0E0FB91
:1008E00050130BBB00030209ACED13FDEE13FEEF3A
:0808F00013FFEC13FC02098464
:1008F80075F020800E75F010800575F0087D007E7B
:10090800007F003392D530D503120C42EC334010EF
:10091800EF33FFEE33FEED33FDEC33FCD5F0ED2283
:0E092800E5F0247EA2D513CC92E7CDCEFF22BF
:10093600EDD2E7CD33EC3392D524814006E4FFFEB9
:10094600FDFC22FCE4CFCECDCC24E0501174FF8018
:10095600EDC3CC13CCCD13CDCE13CECF13CF0470B5
:07096600F030D5DE020C4267
:100DA5008F0D8E0C8D0B8C0AE4FFFE7D807C3FAB96
:100DB5000DAA0CA90BA80A120AD77009AF0DAE0C23
:100DC500AD0BAC0A22AF0DAE0CAD0BAC0A1209B7D8
:100DD500FBAF11AE10AD0FAC0E1209B7FFBF010886
:100DE500E4FFFE7D807C3F22EF64046022EB640417
:100DF500601DBB0127E4FFFEFDFCAB11AA10A90F86
:100E0500A80E120AD760084006E4FFFEFDFC227416
:100E1500FFF511F510F50FF50E020EB3E4F512F519
:100E250013FFFEFDFCAB0DAA0CA90BA80A120AD7ED
:100E3500504BAF11AE10AD0FAC0E1209368E128F9E
:100E450013AC12AD13EC1208FDC8ECC8C9EDC9CA44
:100E5500EECACBEFCBAF11AE10AD0FAC0E1208033F
:100E6500E4FBFAF9F8120AD770A5AF0DAE0CAD0B7D
:100E7500AC0A120B448F0D8E0C8D0B8C0AAF0DAE88
:100E85000CAD0BAC0A120CA4AB11AA10A90FA80E3D
:100E95001209D1120FC68F118E108D0F8C0EE5130E
:100EA50030E00B120B448F118E108D0F8C0EAF118D
:070EB500AE10AD0FAC0E22E0
:10096D00E9D2E7C933E833F892D5EDD2E7CD33ECD0
:07097D0033FC5002B2D52249
:10098400EC30E7100FBF000C0EBE00080DBD0004D4
:100994000BEB6014A2D5EB13FCED92E7FD2274FF80
:1009A400FCFDFEFF22E480F8A2D574FF13FC7D80D9
:0309B400E480EFED
:1009B700ED33EC33601004700FED547F7005740253
:0A09C70092E0227404220422E422CC
:1009D100EC4D6011E8497017ED33EC3304600DE420
:1009E100FCFFFEFD22E933E8330470F80209A2128C
:1009F100096D58046009E4CC24815006285009028D
:100A010009AC2840030209A9C0E0EB4A7044B9804F
:100A110006D0E0FB020998EF4E701CBD8008EBFF89
:100A2100EAFEE9FD80EBE98DF0A4FEE5F0020ABAE9
:100A3100E9CDF9EAFEEBFFEF89F0A4FCE5F0CE8900
:100A4100F0A42EFFE435F0CD89F0A42DFEE435F0BD
:100A51008067EF4E7005BD80D780C3EF8BF0A4ACEB
:100A6100F0EE8BF0A42CFCE435F0F8EF8AF0A42C26
:100A7100E5F038FCE433CB8DF0A42CFCE5F03BF839
:100A8100EE8AF0A42CFCE5F038F8E433CF89F0A429
:100A91002CFCE5F038CF3400CE89F0A42FFFE5F02F
:100AA1003EFEE433C98DF0A42EFEE5F039CD8AF087
:100AB100A42FFFE5F03EFEE43DFD33D0E0FB5007FF
:100AC1000BBB000F0209ACEC2CFCEF33FFEE33FE45
:060AD100ED33FD02098473
:100AD70074F8CC6480CCC86480C8F582046043C3D2
:100AE700EB9FF5F0EA9E42F0E99D42F0E89C45F065
:100AF70060305018E5825FFFE582F42B5582FB508A
:100B0700210ABA001D09B90019088016E5825BFBA6
:100B1700E582F42F5582FF50090EBE00050DBD007A
:100B2700010CC3EB9FF5F0EA9E42F0E99D42F0E825
:0D0B37009C45F06007CC4820E701B3EC229C
:100B4400ED33EC33600A047003BD8004ECB2E7FCBF
:010B5400227E
:100F8E0033DA929E35B16011377FE5FE39218489BF
:100F9E003AAEC3FF3C1D955B3D6358473E75FDF071
:100FAE003F3172183F800000C2D50209AC0209A27F
:100FBE00BD80FA50F30209A9ED33EC330460F17BE6
:100FCE003B7AAA79B8783F1209D1ED33EC3392D53A
:100FDE00247B5011A2D570DB500BED4480240450BD
:100FEE0004A2D580CEEFFBEEFAEDF9ECF81209363D
:100FFE00EFF582F404FC120902120807C082900F6A
:10100E008E7409120C04ED33CC33D0F092D525F04A
:0A101E00A2D57001C313CC13FD220C
:100C70003E9248DA3ECCCCCD3F2AAAAB40000000E1
:100C80003F8000003F9837F03FB504F33FD744FC66
:100C90003E3172173EB172173F0515913EDE5BD9AA
:100CA000D2008002C200EDD2E7F8CD33EC330470FD
:100CB0000BBD800592D50209AC0209A240FBD314FA
:100CC00060F2F5F07C3FEE7A00C39496C8948B40B6
:100CD000230AC89469C8941A401A0AC89468C89428
:100CE0001F40110AC8945AC89425400805F07A009C
:100CF000CDC2E7CDC0F08C148D158E168F17EA2368
:100D000023C0E02480F582E4340CF583120C6012D9
:100D10000807ECC0E0EDC0E0EEC0E0EFC0E0120C70
:100D200050A814A915AA16AB17120803D0E0FBD0DF
:100D3000E0FAD0E0F9D0E0B2E7F8120B588C148D4D
:100D4000158E168F17900C707403120BF5A814A94A
:100D500015AA16AB171209D1D0E0600F248CF582CA
:100D6000E4340CF583120C601208078C148D158E78
:100D7000168F17D0E0C3947FFDE49400FC1208FDA9
:100D80007B187A727931783F1209D1A814A915AA73
:100D900016AB1712080730000B7BD97A5B79DE7827
:050DA0003E1209D12202
:100B55000209ACEC5D046005E8590470030209A2C2
:100B650012096D580460F6EC4860F2EC7004FDFE65
:100B7500FF22C860DB2481C85009C3986002500673
:100B85000209A99850CAF582E9294B4A7005AB823A
:100B950002099875F0007C1A7880C3EF9BEE9AEDF8
:100BA50099400DC3EF9BFFEE9AFEED99FDE842F0EB
:100BB500DC23ACF0D0E0FFD0E0FED0E0FDAB82203E
:100BC500E7101BEB60BAEC2CFCEF33FFEE33FEEDC8
:100BD50033FD020984E803F830E705C0F075F0003D
:100BE500EF2FFFEE33FEED33FD40B830E7C280AAAC
:100BF500C0E0EFFBEEFAEDF9ECF81209D1D0E0F523
:100C0500F0EFFBEEFAEDF9ECF8120C50A3A3A3A359
:100C1500E8C0E0E9C0E0EAC0E0EBC0E0C0F01209DE
:100C2500D1120C60A3A3A3A3120807D0F0D0E0FB58
:0D0C3500D0E0FAD0E0F9D0E0F8D5F0D422FC
:0E0C4200C3E49FFFE49EFEE49DFDE49CFC22C3
:100C5000E493FC740193FD740293FE740393FF22EA
:100C6000E493F8740193F9740293FA740393FB22EA
:00000001FF
